:100000000C943A010C94C8080C9481010C94810161
:100010000C9481010C9481010C9481010C94810158
:100020000C9481010C9481010C94BE1A0C94901BC9
:100030000C94F5150C9481010C9481010C948101B0
:100040000C9481010C9481010C9481010C94810128
:100050000C9481010C9442160C9481010C94810142
:100060000C9481010C9481010C9481010C94810108
:100070000C9481010C9481010C9481010C948101F8
:100080000C9481010C9481010C9481010C948101E8
:100090000C9481010C9481010C9481010C948101D8
:1000A0000C9481010C9481010C948101F00BF00BF4
:1000B000220C220C6F0CA30DA30DA30D8D0C220D91
:1000C000330D330D930DA30DA30D9C0D3F0E3F0E6D
:1000D000510E510E480E510E510E510E3F0E3F0E55
:1000E0004D0E510E510E4D0EFD1B241C1C1D241CCB
:1000F0001C1D701C931C1C1DEA1CF91C29001E00F1
:100100001F002000210022002F002B0014001A00E5
:100110000800150017003500E40004001600070071
:1001200009000A002A00E1001D001B00060019005A
:1001300005000000E200E300E200E3002C082C00D0
:1001400000002D0027002600250024002300300099
:100150002E00130012000C0018001C0031003400A7
:1001600033000F000E000D000B002A005200380073
:100170003700360010001100000051004F00500001
:10018000E300E50028000000040330000000120333
:100190004500720067006F00440061007300680052
:1001A00000000C034F006D006B0062006400000053
:1001B0000403090409023B00020100A0FA0904003B
:1001C0000001030101000921110100012240000783
:1001D00005810308000A0904010001030000000969
:1001E00021110100012232000705820320000A12BA
:1001F00001100100000008EDFE6060000101020333
:100200000105010980A101850319012AB700150123
:1002100026B700950175108100C0050C0901A101E8
:10022000850419012AA002150126A0029501751066
:100230008100C005010906A101050719E029E7159C
:100240000025019508750181029501750881010558
:1002500007190029FF150026FF0095067508810083
:100260000508190129059505750191029501750388
:100270009101C00011241FBECFEFDAE0DEBFCDBF79
:1002800004B603FE27C080915D0290915E02A091AA
:100290005F02B09160028730904BA740B04BD1F421
:1002A00010925D0210925E0210925F021092600244
:1002B00014BE84B7877F84BF0FB6F894A895809149
:1002C0006000886180936000109260000FBEE0E0E3
:1002D000F8E3099511E0A0E0B1E0E4E3FBE302C03C
:1002E00005900D92AA38B107D9F722E0AAE8B1E04B
:1002F00001C01D92AD35B207E1F70E94ED170C94D5
:10030000981D0C9400000C945404089581E0089505
:1003100081E008950C94880108950C948C011F933A
:10032000CF93DF9300D000D01F92CDB7DEB74983C3
:100330005A836B833091AC0189819A81311114C049
:10034000662359F0222349F00E947813182F682F52
:1003500089819A810E94211303C00E944C13182F97
:1003600069817A81812F04C00E94781369817A8122
:100370000F900F900F900F900F90DF91CF911F91E2
:100380000C944002FC01262F4081518162817381CF
:1003900084810C948F01CF93DF93EC0160E00E9485
:1003A000C201BE01DF91CF910C948D010E94AA146D
:1003B000811102C00E944A150C9483010C945204CE
:1003C00008950C94E00181E008950C94E301CF932B
:1003D000C82F0E94E1018C2F0E94E501CF91089562
:1003E0000E942D0E0E9485012FEF84E39CE0215096
:1003F00080409040E1F700C000000C9468160F9315
:100400001F93CF93DF93EC0161E00E94C2018C0146
:10041000BE010E948A01882349F1BE01C8010E94E1
:100420008206882319F1BE01C8010E94C3068823F1
:10043000E9F0BE01C8010E94EE078823B9F08A8165
:10044000882369F001158CE5180731F00E3D1C4535
:1004500031F40E944A150AC00E94F00107C0CE0183
:10046000DF91CF911F910F910C94860180E0DF9175
:10047000CF911F910F91089580E090E00895089525
:1004800026E4829FC0011124FC0127E0729FE00D49
:10049000F11D1124E60FF11DEE0FFF1FE450FF4F79
:1004A000859194910895880F991FFC01E857FE4F9C
:1004B000859194910895CF93DF930E9440020E940A
:1004C0006D03EC018115904508F043C0C11580E42F
:1004D000D80708F0CBC0C03ED10528F5C03CD105F7
:1004E00008F0B3C0C83AD10578F4C53AD10508F090
:1004F000A4C0C130D10509F4ECC008F4E8C0C43090
:10050000D10508F0E6C0E3C0CF3BD10508F0DFC05D
:10051000C85AD0E0CC0FDD1FCA5EDE4F0990D881EB
:10052000C02DD464D6C0C11590E2D90750F4C115CE
:1005300021E0D20708F0CDC0C83ED10508F4C9C0FB
:10054000C6C0C11580E3D80708F086C0CE019F70F1
:100550007FC0C11595E5D90708F043C0C11524E552
:10056000D20708F09AC0C11582E5D80708F5C11571
:1005700091E5D90708F07DC0CE0174E09695879586
:100580007A95E1F783709C2F937021E030E002C0F0
:10059000220F331F9A95E2F73C68382BCF70C6952F
:1005A000C69580E2C89FE0011124C22BD32B91C0D5
:1005B0009E01237033278C2F86958695C115D345D0
:1005C00008F05CC0C1E0D0E002C0CC0FDD1F2A956E
:1005D000E2F720E2829FC0011124C82BD92BDC68EE
:1005E00078C0C11529E5D207A0F4C11588E5D80760
:1005F00008F058C0C11596E5D90708F068C08C2FDF
:100600000E9401048F71C82FD0E0DC2FCC27D0626C
:1006100060C0C1152AE5D20708F449C0CE01905642
:100620008115904208F053C08D2F8F710E940104F4
:10063000DD27D0628F71D82B4CC0C55AD0E0CC5B7F
:10064000DE4FC881D0E0D06444C0CE01805C910907
:100650000E945302EC013DC0CE019927D3FF03C095
:10066000EC01D86C36C0EC01D06C33C0DF70D06ABE
:1006700030C0DC2FCC27C16FD06A2BC0C1E0D0E0E6
:1006800002C0CC0FDD1F2A95E2F720E2829FC00155
:100690001124C82BD92BDA681CC0DC2FCC27C46FDF
:1006A000D06A17C0DC2FCC27C06FD06A12C08C2F45
:1006B0008F700E94010494E0D695C7959A95E1F752
:1006C000CF70D0E0DC2FCC27D069C82B02C0C0E0AF
:1006D000D0E0CE01DF91CF9108958238910569F184
:1006E000B0F48133910509F46DC048F48932910565
:1006F00009F463C08A32910509F469C0089585330D
:10070000910509F455C089339105B9F00895833EE8
:10071000910569F138F4803E9105B1F0823E910572
:1007200009F10895863E9105A9F1873E9105B9F139
:10073000843E910509F064C023C020914E0220FD43
:100740004FC021FD4DC0089580914E0280FD44C0F0
:1007500080914F0280FF44C080914E0284FD42C0D0
:1007600083EE4DC080914E0282FF38C0F5CF80915C
:100770004E0282FD33C080914F0280FD31C0ECCF2C
:1007800080914F0281FF32C080914E0284FD2AC0C9
:1007900087EE35C080914E0283FF26C0F5CF809151
:1007A0004E0283FD21C080914F0281FD1FC0ECCF1E
:1007B00080914E0285FD1CC01DC080914E0285FDBA
:1007C00019C016C080914E0286FD16C017C08091D8
:1007D0004E0286FD13C010C089E311C082EE0FC027
:1007E00080EE0DC080E00BC086EE09C084EE07C02D
:1007F00089E205C085E303C08AE201C081E390E09D
:10080000089590914E0292FF0DC0282F2871283034
:1008100019F4877F846006C0282F2471243011F4D6
:100820008B7F886093FF0DC0282F2871283119F421
:10083000877E846106C0282F2471243111F48B7EB9
:10084000886120914F0220FF0DC0382F3871383059
:1008500019F4877F816006C0382F3171313011F46F
:100860008E7F886021FF0DC0282F2871283119F450
:10087000877E816106C0282F2171213111F48E7E7F
:10088000886194FD877E0895E82FF0E0E25CFD4FDB
:1008900080810895089580EA8A95F1F70895089572
:1008A0000C944F040C9450040C944F040895CF936F
:1008B000DF930E94C70580910001809100018111A2
:1008C00002C095E001C090E09093490285E0891B49
:1008D00080934802AEE4B1E043E551E061E070E0AE
:1008E0008D91E82FE295EF70F0E021A18F70EB0180
:1008F00002C0CC0FDD1F8A95E2F7CE019C2F9095A8
:10090000922391A392A1892B82A34A175B0741F7F7
:10091000A7E4B1E04EE451E061E070E08D91E82F92
:10092000E295EF70F0E021A18F70EB0102C0CC0FD7
:10093000DD1F8A95E2F7CE019C2F9095922391A31B
:1009400092A1892B82A34A175B0741F7E4E3F2E007
:10095000AEE3B2E08EE392E011921D928E179F07F4
:10096000D9F785E00E9471050E94D601DF91CF91F1
:100970000C94D1050E94A805882309F180914802B2
:1009800090E0825C9D4F0E94E405811114C080912B
:100990008A018F5F80938A01863078F0E091480267
:1009A000F0E0E25CFD4F80E090E01192019685302E
:1009B0009105D9F702C010928A010C94DE01809152
:1009C000490290E0825C9D4F0E94FF050C94560402
:1009D0006F927F928F929F92AF92BF92CF92DF924F
:1009E000EF92FF920F931F93CF93DF938EE4882EA5
:1009F00081E0982E04E312E099E3A92E92E0B92E4B
:100A0000712CCC24C394D12CF40181914F01C82FB7
:100A1000C295CF70D0E099A18F70760101C0EE0C25
:100A20008A95EAF7892F8E2989A38AA16E2C609472
:100A300086218AA30E944B04E7E4F1E040E050E005
:100A400020E03191A32FA295AF70B0E090968C91E9
:100A500090E03F7002C0959587953A95E2F780FD4A
:100A600007C08C2D042E01C0880F0A94EAF701C03C
:100A700080E0282B4F5F5F4F4730510511F789A168
:100A8000682269A28AA1E82AEAA2F80180812817CF
:100A900019F0208381E001C080E0782A0F5F1F4FAA
:100AA000A016B10609F0B0CF6091490270E0625C17
:100AB0007D4F272D45E084E392E00E9472050E945D
:100AC000BA04872DDF91CF911F910F91FF90EF9086
:100AD000DF90CF90BF90AF909F908F907F906F905E
:100AE00008950895FF920F931F93CF93DF938C0186
:100AF000F62ED72FC42F222349F081E080938D0159
:100B00000E94271690938C0180938B0180918D0118
:100B10008823C1F080918B0190918C010E94331643
:100B2000069780F0EF2DFD2FD8014C2F50E0CD011E
:100B3000801B910B841795071CF48D918193F7CF3F
:100B400010928D01DF91CF911F910F91FF90089529
:100B500080918E01811112C08091D80080618093B4
:100B6000D8008AE18A95F1F700C08091D90080FD14
:100B700002C082E001C081E080938E0181E090910B
:100B80008E01913009F080E008950C94A8050E9430
:100B9000C505809300010E94A80581110C94D80519
:100BA00008950E94A805811102C00C94DE050895E5
:100BB00061E070E081E091E00C947A0861E070E01F
:100BC00081E091E00C948108CF93DF93D82FC92F57
:100BD0000E941909892B79F4ED2FFC2F80E090E019
:100BE000DC01A057BE4F2C912193019685309105D1
:100BF000B9F781E001C080E0DF91CF91089520E056
:100C000030E0FC014191CF01F901E057FE4F4083F4
:100C10002F5F3F4F25303105A1F708950F931F93A4
:100C2000CF93DF93C62FD42F122FFC01828188230C
:100C3000C9F0609397010E942716909396018093C4
:100C4000950180E28C0F883008F057C0C77081E0B2
:100C500001C0880FCA95EAF7DF91CF911F910F91DC
:100C60000C94AC0B80919701681330C08091950172
:100C7000909196010E9433168837910538F500E26D
:100C80000D0FCD17B9F080E28C0F883040F4C7709B
:100C900081E001C0880FCA95EAF70E94B30B0830C3
:100CA00028F581E09D2F977001C0880F9A95EAF78B
:100CB0000E94AC0B812F0E94990B0830F0F4D77082
:100CC00081E001C0880FDA95EAF70AC080E28C0F54
:100CD000883098F4C77081E001C0880FCA95EAF7A0
:100CE000DF91CF911F910F910C94B30B812FDF9166
:100CF000CF911F910F910C94990BDF91CF911F9180
:100D00000F9108959C01CB01233F4CE53407F9F086
:100D100078F4283DFCE53F07B9F0293D4CE5340760
:100D200011F1273D3C4531F526E241EE61EE1EC052
:100D3000253FFCE53F0799F070F0263F3C45D1F494
:100D400027E245EE66EE12C027E245EE0EC026E22F
:100D500041EE60EE0BC027E245EE64EE07C026E2EE
:100D600041EE62EE03C028E241E065EE0E940E060D
:100D700080E00895FC018281882319F01092970188
:100D8000089581E00895CF93DF93EC01FB01828108
:100D9000882309F41FC1C230FCE5DF0708F41BC13A
:100DA000C6319CE5D90738F09E012A5F3C452930C1
:100DB000310508F010C10E94BD1490934F0280933A
:100DC0004E02C031ECE5DE0709F4C3C008F041C0B3
:100DD000C8308CE5D80709F49AC0F0F4C430ECE5CB
:100DE000DE0709F487C068F4C2308CE5D80709F43F
:100DF00077C0C330DC4509F0E3C080914E028260C9
:100E000076C0C630ECE5DE0709F46EC008F07BC0A2
:100E100080914E0288606BC0CC308CE5D80709F415
:100E200085C068F4CA30ECE5DE0709F474C008F048
:100E300079C00E942D0E80914E02806858C0CE303D
:100E40008CE5D80709F476C008F07FC080914E0287
:100E50008BC0CB3FECE5DE0709F44FC018F5C3317A
:100E60008CE5D80709F47DC078F4C131ECE5DE07E4
:100E700009F473C0C231DC4509F0A2C00E942D0EF6
:100E800080914E028F7733C0C5318CE5D80709F4C5
:100E900072C008F486C0CA3FDC4509F091C0809159
:100EA0004F023EC0CF3FFCE5DF0709F45FC058F4B6
:100EB000CD3F9CE5D90709F444C008F43FC08091B8
:100EC0004F0282602DC0C130FDE5DF0709F475C017
:100ED00008F45DC0C230DD4509F072C080E06EC02C
:100EE00080914E02816003C080914E0280618093A8
:100EF0004E0266C080914E0211C080914F02826006
:100F000080934F025DC080914E028062F0CF80914D
:100F10004E028064ECCF80914E0288608460E7CFFF
:100F20008160EECF80914E028E7FE1CF80914E02A4
:100F30008D7FDDCF80914E02877FD9CF80914F0288
:100F400018C080914F028D7FDBCF80914E028F7E43
:100F5000CECF80914E028F7DCACF80914E028F7B83
:100F6000C6CF80914E02877F8B7FC1CF80914F0289
:100F70008D7F8E7FC5CF80914E0282FB222720F984
:100F800091E0922790FB82F990FB83F9B0CF80919A
:100F90004F02982F909591708E7F892B90FB81F94D
:100FA000AFCF0E942D0E80914E0287FB222720F9A1
:100FB00091E0922790FB87F99ACF81E00E944C152F
:100FC00080914E0290914F020E94CE140E942D0EED
:100FD00080E001C081E0DF91CF910895CF93DF934E
:100FE00086319C4541F5EB010E94F913982F8A81C7
:100FF0002091090130910A01882379F09A7A81E0E1
:1010000009F480E080939801911102C069E201C067
:1010100065E3C9010E9493150AC08091980181116E
:1010200002C069E201C065E3C9010E9495150E94F2
:10103000471480E001C081E0DF91CF9108958EE1F7
:10104000489B02C08150E1F7489BFECF0895589815
:1010500080E28A95F1F7589A0895FC012AE02A95D2
:10106000F1F728E090E080E031E040E14A95F1F7C7
:10107000880F489B02C08160932700C0000040E1B8
:101080004A95F1F7215089F720E12A95F1F729B126
:1010900000C0000030E13A95F1F7217092272081DD
:1010A000920F90830895EF92FF920F931F93CF9327
:1010B000DF931F92CDB7DEB719828C017C01E60E5B
:1010C000F11C0E151F0551F00E941F08CE0101965C
:1010D0000E942D08F80181938F01F3CF81E099815F
:1010E000911180E00F90DF91CF911F910F91FF90B0
:1010F000EF90089590939A0180939901509A589A8D
:10110000089590939A01809399015098589AE89A7B
:10111000E9E6F0E080818C7F80830895615091E062
:1011200001C0990F6A95EAF720E031E0992361F058
:10113000492F482319F0589A232701C0589840E2B4
:101140004A95F1F79695F2CF222311F0589A01C0F3
:10115000589880E28A95F1F758980895FF920F9376
:101160001F93CF93DF93EC018C01060F111DC01765
:10117000D10741F0F9900E94270868E08F2D0E9466
:101180008E08F5CFDF91CF911F910F91FF900895B9
:101190001F920F920FB60F9211242F933F934F93EC
:1011A0005F936F937F938F939F93AF93BF93CF93EF
:1011B000DF93EF93FF935898509AC0919901D09183
:1011C0009A016D81662321F08E819F810E94AE0875
:1011D0000E94270880E18A95F1F758985098589A0C
:1011E00080E18A95F1F76A81662351F08B819C81B9
:1011F0000E945308E881F981811104C082E003C094
:10120000E881F98188E080830E941F08FF91EF91B7
:10121000DF91CF91BF91AF919F918F917F916F910E
:101220005F914F913F912F910F900FBE0F901F90A4
:101230001895CF93DF93C0919901D0919A01F894BA
:10124000509A589885E08A95F1F700005098589A7E
:1012500080E28A95F1F7489B0AC0509A589AE88133
:10126000F98181E08083789481E090E02CC06D81E9
:10127000662381F08E819F810E94530881110AC0EC
:10128000509A589AE881F98182E08083789482E0CC
:1012900090E019C00E941F0880E28A95F1F75898E3
:1012A000509A80E18A95F1F76A81662321F08B815B
:1012B0009C810E94AE080E942708E881F981108273
:1012C000789480E090E0DF91CF9108959093A00111
:1012D00080939F010895E0919F01F091A0013097C4
:1012E00021F00190F081E02D099480E00895E091D3
:1012F0009F01F091A001309721F00280F381E02D51
:101300000994089520919D0130919E012817390775
:1013100071F090939E0180939D01E0919F01F09167
:10132000A001309721F00680F781E02D09940895FF
:1013300020919B0130919C012817390771F09093FF
:101340009C0180939B01E0919F01F091A001309757
:1013500021F00084F185E02D0994089585B7806817
:1013600085BF85B7806885BF089508950C94B50939
:101370000C94B6090C94B5090C94B5090E94AE09F9
:101380000E94BA090C94B8090C94A8050E941E1674
:101390000E9457040E9479160C94BC09AF92BF9228
:1013A000CF92DF92EF92FF920F931F93CF93DF9331
:1013B000CDB7DEB72A970FB6F894DEBF0FBECDBF0C
:1013C0000E94E8040E94C409811111C08FEF898333
:1013D0008A831B820E9427168160782F9D838C83CD
:1013E00049815A816B818D810E94640A40C082EAE2
:1013F000A82E81E0B82E00E010E0C02E802F0E94C1
:101400004404E82EF501D1905F01D82631F40F5F36
:101410001F4F0A30110589F7D9CF8091270281FD2E
:101420000E944A0480E0FF24F3949D2D9F21D1F077
:101430008E83CF82EF2081E009F480E088870E94CC
:1014400027168160782F9A8789874E815F8168850A
:101450008A850E94640AF801EE55FE4F8081F826C5
:10146000F08205C08F5FFF0C8730F9F6D0CF0E9465
:101470006B099091A1018917B1F00E946B098093CB
:10148000A1012A960FB6F894DEBF0FBECDBFDF9143
:10149000CF911F910F91FF90EF90DF90CF90BF9071
:1014A000AF900C94E7012A960FB6F894DEBF0FBEFA
:1014B000CDBFDF91CF911F910F91FF90EF90DF9003
:1014C000CF90BF90AF900895CF93DF93CDB7DEB7A5
:1014D0002B970FB6F894DEBF0FBECDBF4F83588752
:1014E00069877A878B87DE01119686E0FD0111926C
:1014F0008A95E9F785E0FE01379601900D928A956D
:10150000E1F749815A816B817C818D819E810E94A6
:10151000E6102B960FB6F894DEBF0FBECDBFDF915D
:10152000CF910895FC01808191810E94BA130895A2
:10153000CF93882309F49CC0C82F8238C1F40E943D
:101540006B0981FD95C069E38091090190910A01C1
:101550000E9493150E9447142FEF81EE94E02150D2
:1015600080409040E1F700C0000069E319C0833873
:1015700001F50E946B0980FD7BC063E58091090144
:1015800090910A010E9493150E9447142FEF81EE5B
:1015900094E0215080409040E1F700C0000063E5F6
:1015A0008091090190910A010E949515CF910C94A8
:1015B00047148438C1F40E946B0982FD59C067E466
:1015C0008091090190910A010E9493150E9447148D
:1015D0002FEF81EE94E0215080409040E1F700C071
:1015E000000067E4DDCF8CEF8C0F813AD0F46C2FD4
:1015F0008091090190910A010E945D15882349F0AC
:101600006C2F8091090190910A010E9495150E940A
:1016100047146C2F8091090190910A010E94931543
:10162000C5CF80E28C0F883048F4C77081E001C0DC
:10163000880FCA95EAF70E94FC13B8CFEBE5EC0FD0
:10164000E33040F4F0E0EA57FE4F808190E0CF9124
:101650000C948209C85AC73158F4EC2FF0E0EE0F11
:10166000FF1FE85AFE4F80819181CF910C94980919
:10167000CF910895882309F45BC0682F823879F4EC
:101680000E946B0981FF54C069E380910901909128
:101690000A010E9493150E94471469E310C0833821
:1016A000B1F40E946B0980FF43C063E5809109019A
:1016B00090910A010E9493150E94471463E580915E
:1016C000090190910A010E9495150C9447148438E1
:1016D00079F40E946B0982FF2BC067E480910901B5
:1016E00090910A010E9493150E94471467E4E7CF86
:1016F0008CEF860F813A18F380E2860F883048F429
:10170000677081E001C0880F6A95EAF70E940214B1
:10171000DCCF8BE5860F833020F480E090E00C94E2
:101720008209685A673120F480E090E00C949809AF
:101730000895CF93C82F0E94980AC93349F42FEF18
:1017400087EE93E0215080409040E1F700C0000018
:101750008C2FCF910C943A0B882321F00E94FC131C
:101760000C9447140895882321F00E9402140C94CD
:1017700047140895CF92DF92EF92FF920F931F9339
:10178000CF93DF937C01062FC72FFC0115811295A3
:101790001F70D281D1110E9419140E94F213882364
:1017A00099F0DD2389F08C2F807F803421F080E256
:1017B000800F883048F082E00E9491140E94F2135A
:1017C00091E0D82ED92601C0D12CCC2EC2948FE026
:1017D000C8228C2D90E0FC01EA5AFF4F0C94501D5A
:1017E0008C2F807FCF70882311F0C295C07FDD23BE
:1017F00099F0CC2309F482C180E2800F883010F088
:10180000011104C08C2F0E94FC1303C08C2F0E9476
:101810000C140E94471472C1802F0E943A0BCC23F3
:1018200009F491C180E2800F883010F0011104C0EA
:101830008C2F0E94021403C08C2F0E9412140E944D
:10184000471481C18C2F807FCF70803211F0C295F8
:10185000C07F002319F00130C9F022C0DD2371F0F0
:10186000112341F0113031F40E942C148C2B0E9472
:10187000341469C10E942C148C2B1DC0112319F043
:10188000113009F460C10E943D1425C0DD2321F010
:10189000163008F058C10EC0153008F054C11BC0F6
:1018A000DD2361F0112331F0F701858180FF26C12E
:1018B0008F7085838C2F0E94AC0B45C1112359F08A
:1018C000093309F02CC1FFEF27EE83E0F1502040EF
:1018D0008040E1F722C18C2F0E94B30B34C18C2FC2
:1018E00086958695837019F0813061F02CC1DD23D7
:1018F00021F0802F9C2F937002C080E090E00E9426
:10190000820929C1DD2321F0802F9C2F937002C012
:1019100080E090E00E9498091EC18C2F837009F02E
:1019200045C0D11114C1402F429546954770440FD0
:10193000440F602F6F70862F90E0A0E0B0E0042E7F
:1019400004C0880F991FAA1FBB1F0A94D2F704FF77
:1019500010C00FE010E020E030E004C0000F111FC5
:10196000221F331F4A95D2F7009510952095309588
:1019700003C000E010E09801C695C695C370BC0195
:10198000CD01602B712B822B932BC23049F058F480
:10199000C13019F00E943712DAC00E942512D7C058
:1019A0000E944912D4C00E942312D1C0DD2319F035
:1019B0008C2F817001C08695882309F4C8C0402F00
:1019C000429546954770440F440F602F6F70862FE5
:1019D00090E0A0E0B0E0042E04C0880F991FAA1F79
:1019E000BB1F0A94D2F704FF10C00FE010E020E004
:1019F00030E004C0000F111F221F331F4A95D2F799
:101A0000009510952095309503C000E010E09801F6
:101A1000C695C695C370BC01CD01602B712B822B7E
:101A2000932BC23049F058F4C13019F00E94FC12D7
:101A30008EC00E94EA128BC00E940E1388C00E94C2
:101A40005D1285C0CF70DD2339F08C2F0E94831288
:101A5000802F0E94AC0B7BC0802F0E94B30B8C2F79
:101A60000E94A41274C0023F01F128F4003F41F02B
:101A7000013FA1F03FC0033FF9F0043F39F13AC004
:101A8000DD2341F0153008F05EC08C2F8F710E946D
:101A9000C91259C0163008F056C0F7CFDD2339F00F
:101AA0008C2F8F710E9483124EC0DD23C9F38C2FBF
:101AB0008F710E94A41247C0DD2329F08C2F8F71F3
:101AC0000E946E1240C00E9469123DC0DD2349F0A1
:101AD000CF718C2F0E94831263E08C2F0E947C14A4
:101AE00032C081E00E949114123068F182E00E94BD
:101AF000911429C0DD2331F0112391F2802F0E942F
:101B0000980A21C0112399F2093349F49FEFE7EEB7
:101B1000F3E09150E040F040E1F700C00000802F7A
:101B20000E943A0B10C04C2F4F70602FC7010E94CB
:101B30003C020E9494110FC04C2F4F70602FC701C0
:101B40000E943F0208C088EF8C0D843020F40E9470
:101B50006B090E94E701DD20C9F00E94EE1380FDB1
:101B600015C0F70112820E94E8130E948312C70178
:101B70000E94E70D0E94E813DF91CF911F910F9112
:101B8000FF90EF90DF90CF900C94A412DF91CF9153
:101B90001F910F91FF90EF90DF90CF9008950F93DA
:101BA0001F93CF93DF93EC01688179818A810E9432
:101BB000C5138C010E9420130E941112B801CE019E
:101BC0000E94BA0BDF91CF911F910F910895CF938F
:101BD000DF93EC01988189812B813C81232B31F0AB
:101BE0008F3F31F481E09F3F19F403C081E001C0D1
:101BF00080E080FD19C0CE010E94FF0181110CC060
:101C00000E94F213882381F08A81882369F082E0A0
:101C1000DF91CF910C949114CE010E94CF0DCE0193
:101C2000DF91CF910C94CB01DF91CF9108950E9469
:101C300019140E9429140E94471480E090E00E9429
:101C4000820980E090E00C949809809109019091BC
:101C50000A010E9497150C94170E0E9409140C9407
:101C6000250EE92FE295EF704E2F50E0FA013297E2
:101C7000EE30F105B0F4EA59FF4F0C94501D803F4F
:101C800091F018F4883E68F40EC0843F51F40BC004
:101C9000883E48F0813F29F406C093FB882780F9ED
:101CA000089580E0089581E008950E94BA130E948B
:101CB000310E0895CF93DF9300D000D01F92CDB79F
:101CC000DEB70F900F900F900F900F90DF91CF9194
:101CD0000895CF93DF9300D000D000D0CDB7DEB70A
:101CE00026960FB6F894DEBF0FBECDBFDF91CF9121
:101CF00008951F93CF93DF93C091AD0116E08091BB
:101D0000AE01C81799F0D0E01C9FF0011D9FF00DA7
:101D10001124E155FE4F408151816281738184819C
:101D200095810E94690E2196C770E9CFDF91CF910E
:101D30001F9108954091DF015091E0016091E10110
:101D40007091E2018091E3019091E4010C94690E9D
:101D50000F931F93CF93DF938091E40182958F704F
:101D600009F05DC08091E101882309F458C0809199
:101D7000AD011091AE016091DF017091E001C09161
:101D8000E201D091E30191E06F3F09F090E0292F4B
:101D900006E0811709F443C0209721F07F3F21F02E
:101DA00030E003C031E001C0322F90E030FD34C09C
:101DB000089FF001099FF00D1124DF01A155BE4FCE
:101DC00011963C911197371327C03C91361324C0CC
:101DD00012963C91129731111FC013964D915C9150
:101DE00014974C1B5D0B48375105B0F48091E4010A
:101DF0008F7080618093E401EC54FE4F80818F707E
:101E0000806180838FED91E00E94E70DDF91CF919B
:101E10001F910F910C94790E01968770BACFDF91C4
:101E2000CF911F910F9108959F92AF92BF92CF9241
:101E3000DF92EF92FF920F931F93CF93DF93CDB773
:101E4000DEB761970FB6F894DEBF0FBECDBF8C0131
:101E500085E0F801DE011D9601900D928A95E1F76B
:101E6000F80140815181E2809091DF016091E001B1
:101E70002091E2013091E3012115310531F06F3FEE
:101E800031F481E09F3F19F403C081E001C080E09C
:101E9000F82FF1709F2E80FD46C1F801A380B48019
:101EA0008FEDC82E81E0D82EF090E101F501E21B04
:101EB000F30BFF2009F4DFC08091E401E837F1055E
:101EC00008F09BC0282F207F09F052C0561313C082
:101ED000491311C0FE2CE1100EC08F7080618093F9
:101EE000E4010E949A0EC6010E94E70D8091E40170
:101EF000F801858358C1AB2831F05F3F31F481E0B0
:101F00004F3F19F403C081E001C080E080FD03C0B1
:101F100081E08E2502C080E090E0F82FF170FF2E66
:101F200080FF1CC08091AD012091AE0136E0821788
:101F300009F417C190E0389FF001399FF00D11248A
:101F4000E155FE4F6181561306C06081461303C000
:101F50006281E61203C001968770E9CFFE2CEE2065
:101F600009F421C18091E40181608093E4015AC0A9
:101F7000561306C0491304C0E11002C0F8019FC007
:101F80004D875E878D859E850E94550E882379F149
:101F9000EE2069F12091E401822F82958F7090E00C
:101FA000029774F08091DF019091E00198878F8310
:101FB0001986BB86AA862C87CE0107960E94E70D5C
:101FC00086E0F801AFEDB1E001900D928A95E1F75E
:101FD0000E94A80E0E949A0E0DC0561729F14D8737
:101FE0005E878D859E850E94550E81112CC0C8018B
:101FF0000E94E70DFF24F394D6C0282F207F69F7B5
:102000007A2DB98AA88A6E2D89890E945A0E8FED81
:1020100091E00E94E70D86E0F60111928A95E9F7BA
:102020000E949A0EF12CBFC04913D9CFE110D7CF2F
:10203000F8018583C8010E94E70D86E0F601119240
:102040008A95E9F7B0C0EE2091F22091E401822F49
:1020500082958F7090E002970CF4B2CF8091DF01EF
:102060009091E0019A8389831B82BD82AC822E838A
:10207000CE010196A3CFE837F10508F047C0FE2C4A
:10208000EE2009F4B4CF561330C049132EC020916E
:10209000E40120FD21C0822F82958F70482F50E0EF
:1020A00041155105C9F0F80125834F30510541F024
:1020B0008F5F982F9295907F822F8F70892B8583C9
:1020C000C8010E94E70D86E0F801AFEDB1E0019094
:1020D0000D928A95E1F742C086E0F801AFEDB1E0DC
:1020E00001900D928A95E1F75EC04D875E878D85E0
:1020F0009E850E94550E811163CF8091E40181601D
:102100008093E401C8010E94E70D4DC07A2DB98A81
:10211000A88A6E2D89890E945A0E86E0F6011192D6
:102120008A95E9F71BC0EE2009F461CF4D875E87E1
:102130008D859E850E94550EF82E882309F457CF71
:1021400086E0F801AFEDB1E001900D928A95E1F7DC
:102150008FED91E00E94920A0E94A80E0E949A0EB2
:1021600022C04D875E878D859E850E94BA13292FD8
:1021700022952F70223028F49F7039F0811105C00C
:102180000BC0243028F49F7049F4805E883020F022
:10219000C8010E94E70D9F2CF92C05C0F80195811C
:1021A000907F99F7F9CF8F2D61960FB6F894DEBF27
:1021B0000FBECDBFDF91CF911F910F91FF90EF9098
:1021C000DF90CF90BF90AF909F9008951F93CF93D3
:1021D000DF93CDB7DEB72C970FB6F894DEBF0FBEF6
:1021E000CDBF4F83588769877A878B879C87CE01BD
:1021F00007960E94140F8823D1F09F8188852A8535
:102200003B85232B31F08F3F31F481E09F3F19F460
:1022100003C081E001C080E080FD47C04F81588548
:1022200069857A858B859C850E94690E3EC086E013
:10223000FE013796DE01119601900D928A95E1F725
:10224000FF81E8856A857B856115710531F0EF3F77
:1022500031F481E0FF3F19F403C081E001C080E068
:1022600080FD23C02091AE0130E0C9010196877046
:1022700099274091AD0150E084179507F1F1F9835A
:10228000EA837D836C8396E0929FD001939FB00D8B
:102290001124A155BE4FFE01319601900D929A95E1
:1022A000E1F78093AE010E94790E16E08091AD01B6
:1022B0009091AE01891771F1189FC00111248155C9
:1022C0009E4F0E94140F882329F1E091AD011E9FBB
:1022D000F0011124E155FE4F4081518162817381EB
:1022E000848195810E94690E8091AD0190E00196F4
:1022F000877099278093AD01D9CF0E942D0E10923F
:10230000AE011092AD01EFEDF1E086E0DF011D922C
:102310008A95E9F72C960FB6F894DEBF0FBECDBFB5
:10232000DF91CF911F910895EF92FF920F931F932A
:10233000CF93DF938C01892B09F46CC0F12CEE2430
:10234000E394E8012196F8018491843740F48430C5
:1023500008F051C0813081F0823019F15BC08537BF
:1023600009F444C0A8F19CE7980F903708F052C0D8
:102370008F770E943A0B41C00E5F1F4FFE01849180
:1023800090E2980F983050F48770FE2D01C0FF0F37
:102390008A95EAF78F2F0E941C1414C00E94980A95
:1023A0002DC00E5F1F4FFE01849190E2980F983070
:1023B00060F48770FE2D01C0FF0F8A95EAF78F2F1A
:1023C0000E9422140E94471419C00E943A0B16C0A2
:1023D0000E5F1F4FFE01C491CC2381F08FE99FE077
:1023E0000197F1F700C00000C150F6CF0E5F1F4FFC
:1023F000FE01F49003C00E94980A8E018F2D88235D
:1024000009F49FCFEFE9FFE03197F1F700C000003A
:102410008150F5CFDF91CF911F910F91FF90EF90F9
:102420000895089508950C9412120C9413120E94AA
:1024300015126093160270931702809318029093FE
:1024400019020C94170E0C9417120F931F930091FE
:102450001602109117022091180230911902602B78
:10246000712B822B932B1F910F910C9417120F93AA
:102470001F930091160210911702209118023091BB
:10248000190260237123822393231F910F910C94CF
:1024900017120F931F9300911602109117022091AB
:1024A00018023091190260277127822793271F9104
:1024B0000F910C9417120C9412120E945B126093ED
:1024C00012027093130280931402909315020C94DD
:1024D000170E60E070E0CB010C945D120F931F9318
:1024E00041E050E060E070E08A019B0104C0000F11
:1024F000111F221F331F8A95D2F7C901B8011F91FE
:102500000F910C945D120F931F9341E050E060E037
:1025100070E004C0440F551F661F771F8A95D2F7DD
:102520008091120290911302A0911402B0911502B1
:102530008A019B01082B192B2A2B3B2BC901B801BF
:102540001F910F910C945D120F931F9341E050E087
:1025500060E070E004C0440F551F661F771F8A9526
:10256000D2F74095509560957095809112029091A8
:102570001302A0911402B09115028A019B01082355
:1025800019232A233B23C901B8011F910F910C94F1
:102590005D120F931F9341E050E060E070E004C0D3
:1025A000440F551F661F771F8A95D2F7809112023C
:1025B00090911302A0911402B09115028A019B011F
:1025C000082719272A273B27C901B8011F910F9116
:1025D0000C945D120F931F9300911202109113023D
:1025E0002091140230911502602B712B822B932BBA
:1025F0001F910F910C945D120F931F930091120283
:10260000109113022091140230911502602371235E
:10261000822393231F910F910C945D120F931F93AC
:1026200000911202109113022091140230911502B0
:1026300060277127822793271F910F910C945D12B9
:10264000089527E0929F800D1124E82FE695E695E6
:10265000E695877051E001C0550F8A95EAF785E04D
:10266000E89FF0011124EB51FE4F20E030E070E0D4
:102670004081CB01022E02C0969587950A94E2F71D
:102680008170819584278523842781932F5F3F4F15
:102690002530310569F7089527E0929F800D1124B8
:1026A000682F669566956695982F977085E0689F68
:1026B000B001112440E050E080E0FB01E40FF51F81
:1026C000EB51FE4F208130E0092E02C03695279550
:1026D0000A94E2F721703327042E01C0220F0A94D6
:1026E000EAF7822B4F5F5F4F4530510531F7089570
:1026F000BF92CF92DF92EF92FF920F931F93CF93EF
:10270000DF938C01C0901202D0901302E09014026B
:10271000F09015028091160290911702A091180274
:10272000B0911902C82AD92AEA2AFB2ACFE1D0E0BF
:10273000D701C6010C2E04C0B695A795979587952D
:102740000A94D2F780FD04C0219790F7B12C07C0FE
:10275000BC2EB8018C2F0E945B020197A9F38B2D30
:10276000DF91CF911F910F91FF90EF90DF90CF906D
:10277000BF900895CF93DF93EC010E947813BE01C0
:102780000E945B02DF91CF9108951F93CF93DF9357
:10279000EB019091AC01992321F0CB010E94BA1377
:1027A00013C0882349F0CB010E947813182F682F9B
:1027B000CE010E94211304C0CB010E944C13182F9C
:1027C000BE01812F0E945B02DF91CF911F9108957E
:1027D00080911A02859585958595089580911A02B4
:1027E0008770089590911A02977081E009F480E053
:1027F000089580912602089590912602892B809356
:1028000026020895809590912602892380932602BE
:10281000089510922602089590912502892B8093A5
:1028200025020895809590912502892380932502A1
:10283000089510922502089590912402892B809387
:102840002402089580959091240289238093240284
:10285000089510922402089580911B02089508950E
:102860000C942F140C94301490911B02981721F0A3
:1028700080931B020C943214089580911B028823CC
:1028800029F010921B0280E00C9432140895E0911C
:102890000901F0910A01809126028083E0910901EB
:1028A000F0910A01908180912502892B8083E0912B
:1028B0000901F0910A01908180912402892B808383
:1028C00080911B02882381F0E0910901F0910A01B7
:1028D0009081892B80838091090190910A010E9447
:1028E000511581110E943D148091090190910A01B6
:1028F0000C9477090C942F1498E0899F900111246F
:10290000262B20931A020E94831280911A02859529
:10291000859585950C947A1410921A0280E00C9497
:102920007A1420911A028095822380931A02982F9C
:10293000977079F430E0482F082E000C550B2417BF
:10294000350739F08595859585950E94A4120C94DC
:102950008C14089580E090E00E945E1D21E08C3E82
:102960009E4F09F020E0822F089582E090E00C94C1
:10297000561D83E090E00C94561DCF9384E090E0C8
:102980000E94561DC82F81E290E00E94561D2C2FF8
:1029900030E0A901582BCA01CF910895CF93C92FD8
:1029A000682F84E090E00E94641D6C2F81E290E02B
:1029B000CF910C94641DAB01BC018FE090E00C94AE
:1029C000761DAB01BC0183E190E00C94761D60E0C4
:1029D00070E0CB010C94E11460E070E0CB010E9448
:1029E000DB140C94E7146CEE7EEF80E090E00E9424
:1029F000821D60E082E090E00E94641D60E083E060
:102A000090E00E94641D109216021092170210921C
:102A100018021092190260E084E090E00E94641DA8
:102A200060E081E290E00E94641D60E085E090E05B
:102A30000E94641D60E086E090E00E94641D6FEFDC
:102A400087E090E00E94641D40E050E0BA0188E019
:102A500090E00E94761D60E08DE090E00E94641D91
:102A600040E050E0BA0188E190E00E94761D60E00D
:102A700087E190E00E94641D40E050E0BA018CE1E3
:102A800090E00E94761D60E080E290E00E94641D6C
:102A90000C94EC140C94F314682F8EE090E00C94DA
:102AA000641DFC01329697E080E0915029F021915D
:102AB0002223D9F38F5FF9CF0895662349F0FC01F3
:102AC000329608962191621729F0E817F907D1F795
:102AD00080E0089581E008959C01FC0132969FEF0B
:102AE00080E04191461789F09F3F19F4411101C0E0
:102AF000982F8F5F8630A9F79F3F39F0F901E90FD2
:102B0000F11D97FDFA956283089508959C012A5F4F
:102B10003F4FFC014281461301C012820196821789
:102B20009307B9F708950C946C150C9486150296CA
:102B300026E0FC0111922A95E9F7089508950C9476
:102B40009E150C949E15CF930E94A1150E94E80437
:102B50000E949F15C0E08C2F0E944404811104C084
:102B6000CF5FCA30C1F701C081E0CF9108950C94C6
:102B70009E150C94B7150E94B915809154028430AB
:102B800049F11092280220E488E190E00FB6F89411
:102B9000A895809360000FBE2093600080E00E94A3
:102BA000E7010E94B91583B7817F846083BF83B733
:102BB000816083BF7894889583B78E7F83BF0FB67B
:102BC000F894A895809160008861809360001092CD
:102BD00060000FBE08950C949E150E942D0E0E9459
:102BE0006B090E94E7010C94EB151F920F920FB630
:102BF0000F9211248F939F93AF93BF9380912802DC
:102C0000811113C080914A0290914B02A0914C0215
:102C1000B0914D024196A11DB11D80934A0290933F
:102C20004B02A0934C02B0934D02BF91AF919F9184
:102C30008F910F900FBE0F901F90189582E084BD6A
:102C400093E095BD9AEF97BD80936E0008952FB7DE
:102C5000F89480914A0290914B02A0914C02B0915D
:102C60004D022FBF08959C014FB7F89480914A02FE
:102C700090914B02A0914C02B0914D024FBF821B2C
:102C8000930B089578941F920F920FB60F92112410
:102C90008F939F93AF93BF9380914A0290914B0281
:102CA000A0914C02B0914D020196A11DB11D8093DF
:102CB0004A0290934B02A0934C02B0934D02BF91F5
:102CC000AF919F918F910F900FBE0F901F9018950D
:102CD00087E797E790930108809300089AE088E1DE
:102CE0000FB6F894A895809360000FBE9093600093
:102CF000FFCF0E94AA14811102C00E944A150E94AF
:102D0000B514809327020E94BD1490934F028093C4
:102D10004E020E94B914682F70E080E090E00C949D
:102D200023128091310208950895CF93DF9300D04C
:102D30001F92CDB7DEB790915402943019F5898374
:102D40007B836A8382E08093E9008FEF9091E800B3
:102D5000815095FD06C095ED9A95F1F7000081111F
:102D6000F5CF8091E80085FF0DC040E050E063E0C2
:102D700070E0CE0101960E94B2188091E8008E7733
:102D80008093E8000F900F900F90DF91CF910895FE
:102D9000CF93DF93EC010E949518823011F08430BC
:102DA00031F4BE0184E0DF91CF910C949516DF9150
:102DB000CF910895BC0183E00C949516CF93DF93D7
:102DC000EC010E949518823011F0843039F581E0D1
:102DD0008093E9008FEF9091E800815095FD06C047
:102DE00095ED9A95F1F700008111F5CF8091E800FB
:102DF00085FF14C040E050E068E070E0CE010E9422
:102E0000B2188091E8008E778093E80088E0FE0198
:102E1000A9E2B2E001900D928A95E1F7DF91CF919E
:102E2000089580915302811109C00E94431A0E94A3
:102E3000A01A8091E20084608093E20008951092CD
:102E400053020895089508950C94ED1542E061EC45
:102E500081E00E94BC1942E261EC82E00C94BC1952
:102E600080915602833009F460C030F4813071F0F3
:102E7000823009F499C008958A3009F485C08B30F6
:102E800009F46BC0893009F0A7C020C080915502B9
:102E9000813A09F0A1C08091E800877F8093E80023
:102EA0008091590290915A02892B21F468E089E2BD
:102EB00092E003C060E080E090E070E00E94FD18C6
:102EC0008091E8008B778093E80008958091550207
:102ED000813209F081C08091590290915A02029783
:102EE00008F07AC08091E800877F8093E8008091A5
:102EF000E80082FD05C0809154028111F8CF6CC0BA
:102F00002091F3008091F20090E0922B029729F437
:102F10008091F1008B7F813021F48091F1008093CA
:102F200031028091E8008B7753C080915502813A3D
:102F300009F052C08091590290915A02892B09F0F0
:102F40004BC08091E800877F8093E8008091E80083
:102F500080FFFCCF8091150136C0809155028132EF
:102F6000D9F58091590290915A02892BA9F5809147
:102F7000E800877F8093E8000E94F1198091570252
:102F8000809315010C942D0E80915502813221F50C
:102F90008091E800877F8093E8000E94F11980917A
:102FA000580280933202089580915502813AA1F42B
:102FB0008091E800877F8093E8008091E80080FF9F
:102FC000FCCF809132028093F1008091E8008E77EF
:102FD0008093E8000C94F119089584B7877F84BF2B
:102FE0000FB6F894A8958091600088618093600086
:102FF000109260000FBE90E080E80FB6F8948093C6
:103000006100909361000FBE0E94BE090E94431AA6
:103010000E94A01A8091E20084608093E20078947C
:103020000E94351D0E94C6098BE091E00E9466094E
:1030300080915402853069F40E94BB158091520240
:103040008823B1F30E94A315882391F30E949C1852
:10305000EFCF0E94CE09ECCF0C942E18292F3327E6
:1030600023303105C9F060F42130310581F0223080
:10307000310509F04AC08BE390E024EB31E049C010
:103080002132310511F12232310579F13EC082E160
:1030900090E02FEE31E03DC099278130910561F03D
:1030A00040F08230910559F0039779F5E8E8F1E0B6
:1030B00008C0E0EBF1E005C0E2EAF1E002C0EEE8B2
:1030C000F1E0849190E09F0124C06115710541F009
:1030D00061307105D1F489E090E02FED31E019C045
:1030E00089E090E026EC31E014C06115710541F0F3
:1030F0006130710551F482E390E021E032E009C0D3
:1031000080E490E023E332E004C080E090E020E03F
:1031100030E0FA0131832083089580915402843095
:1031200011F081E0089582E00895809133028111C9
:1031300002C00C948D18089580E189BD82E189BD9B
:1031400009B400FEFDCF8091D8008F7D8093D80018
:103150008091E00082608093E0008091E00081FD3A
:10316000FCCF0895CF92DF92EF92FF920F931F93BF
:10317000CF93DF93EC018B017A010E94101A811129
:1031800033C0E114F10439F0F70180819181081B0B
:10319000190BC80FD91FC12CD12C0115110519F11C
:1031A0008091E80085FD16C08091E8008E778093BD
:1031B000E800E114F10449F0F70180819181C80E23
:1031C000D91ED182C08285E00FC00E94101A8823C8
:1031D00021F30AC089918093F10001501109FFEF9A
:1031E000CF1ADF0ADACF80E0DF91CF911F910F91E4
:1031F000FF90EF90DF90CF90089520915B02309187
:103200005C022617370748F06115710539F42091E3
:10321000E8002E772093E80001C0B901FC0120E00E
:103220006115710579F1809154028823F1F185309F
:10323000F1F18091E80083FD3CC08091E80082FDBF
:103240002EC08091E80080FFEBCF2091F3008091A9
:10325000F20090E0922B6115710551F088309105D4
:1032600038F421912093F100615071090196F3CF58
:1032700021E0089709F020E08091E8008E778093A4
:10328000E800CECF2111CFCF0AC08091540288230D
:1032900061F0853061F08091E80083FD0AC0809183
:1032A000E80082FFF2CF80E0089582E0089583E095
:1032B000089581E0089520915B0230915C02261709
:1032C000370748F06115710539F42091E8002E7731
:1032D0002093E80001C0B901FC0120E061157105EF
:1032E00091F180915402882309F440C0853009F49B
:1032F0003FC08091E80083FD3DC08091E80082FDE1
:103300002FC08091E80080FFE9CF2091F3008091E9
:10331000F20090E0922B6115710559F0883091050B
:1033200040F424912093F100319661507109019687
:10333000F2CF21E0089709F020E08091E8008E7735
:103340008093E800CBCF2111CCCF0AC080915402EA
:10335000882361F0853061F08091E80083FD0AC028
:103360008091E80082FFF2CF80E0089582E0089526
:1033700083E0089581E00895982F973068F5909341
:10338000E900981739F07091EC002091ED00509110
:10339000F00003C0242F762F50E021FD02C09F5F74
:1033A000ECCF3091EB003E7F3093EB003091ED009D
:1033B0003D7F3093ED003091EB0031603093EB00B6
:1033C0007093EC002093ED005093F0002091EE00FC
:1033D00027FDE5CF80E008958F708093E90081E0BC
:1033E00008958091550287FF11C08091E80082FD09
:1033F00005C0809154028111F8CF11C08091E8007E
:103400008B770BC080915402882349F08091E800AB
:1034100080FFF8CF8091E8008E778093E8000895D0
:103420002091E4003091E50095E64091EC00842F76
:10343000817040FF23C08091E80080FD1DC0809115
:103440005402882399F0853099F08091EB0085FD36
:1034500011C04091E4005091E5002417350729F38D
:10346000915011F09A01E1CF84E0089582E008952F
:1034700083E0089581E0089580E008954091E80098
:1034800042FFDDCF08950E94B11A0E94B91AE0EE02
:10349000F0E0808181608083E8EDF0E080818F77CB
:1034A000808319BCA7EDB0E08C918E7F8C938081D6
:1034B0008F7E80831092530208950F931F93CF93B2
:1034C000DF930E94B11A0E94B91AC8EDD0E088813A
:1034D0008F77888388818068888388818F7D8883BF
:1034E00019BC109254021092500210925202109283
:1034F000510200EE10E0F80180818B7F808388818B
:103500008160888342E060E080E00E94BC19E1EEC7
:10351000F0E080818E7F8083E2EEF0E08081816048
:103520008083808188608083F80180818E7F8083A2
:10353000888180618883DF91CF911F910F910895D9
:10354000E8EDF0E080818F7E8083E7EDF0E0808120
:103550008160808384E082BF81E0809353020C9479
:103560005D1AE8EDF0E080818E7F80831092E200AA
:1035700008951092DA001092E10008951F920F92C0
:103580000FB60F9211242F933F934F935F936F9336
:103590007F938F939F93AF93BF93EF93FF9380910C
:1035A000E10082FF0BC08091E20082FF07C08091A2
:1035B000E1008B7F8093E1000E94341D8091DA004E
:1035C00080FF1FC08091D80080FF1BC08091DA006F
:1035D0008E7F8093DA008091D90080FF0DC080E15A
:1035E00089BD82E189BD09B400FEFDCF81E08093F1
:1035F00054020E94111705C019BC109254020E9477
:103600001F178091E10080FF19C08091E20080FFC8
:1036100015C08091E2008E7F8093E2008091E200ED
:1036200080618093E2008091D80080628093D8000E
:1036300019BC85E0809354020E9423178091E10019
:1036400084FF30C08091E20084FF2CC080E189BDFE
:1036500082E189BD09B400FEFDCF8091D8008F7D45
:103660008093D8008091E1008F7E8093E10080916B
:10367000E2008F7E8093E2008091E200816080937F
:10368000E20080915002882311F084E007C080910D
:10369000E30087FD02C081E001C083E08093540213
:1036A0000E9424178091E10083FF29C08091E200ED
:1036B00083FF25C08091E100877F8093E10082E055
:1036C00080935402109250028091E1008E7F80938B
:1036D000E1008091E2008E7F8093E2008091E20021
:1036E00080618093E20042E060E080E00E94BC19CB
:1036F0008091F00088608093F0000E942217FF9173
:10370000EF91BF91AF919F918F917F916F915F9159
:103710004F913F912F910F900FBE0F901F901895D2
:103720001F920F920FB60F9211242F933F934F9336
:103730005F936F937F938F939F93AF93BF93CF9339
:10374000DF93EF93FF93C091E900CF708091EC007D
:10375000D82FD17080FDD0E81092E9008091F00060
:10376000877F8093F00078940E94D41B1092E90028
:103770008091F00088608093F000CD2BCF70C093D3
:10378000E900FF91EF91DF91CF91BF91AF919F91B0
:103790008F917F916F915F914F913F912F910F90FA
:1037A0000FBE0F901F9018951F93CF93DF93CDB747
:1037B000DEB7AA970FB6F894DEBF0FBECDBFE5E522
:1037C000F2E08091F100819322E0ED35F207C9F734
:1037D0000E9430178091E80083FF2EC1809155022E
:1037E00090915602492F50E04A30510508F024C10B
:1037F000FA01EC58FF4F0C94501D803821F08238AC
:1038000009F01AC108C08091510290915202992387
:1038100089F082600FC0809159028F70873008F064
:103820000BC18093E9008091EB0085FB882780F92C
:103830001092E9009091E800977F9093E8008093C0
:10384000F1001092F100D1C0282F2D7F09F0F4C0B3
:10385000882319F0823061F0EFC0809157028130E7
:1038600009F0EAC0933009F080E0809352022EC044
:103870008091570281112AC0809159028F702FEFD9
:10388000280F263008F0D8C08093E9002091EB0083
:1038900020FF1CC0933021F48091EB00806214C0A3
:1038A0009091EB0090619093EB0021E030E0A90152
:1038B00002C0440F551F8A95E2F74093EA00109228
:1038C000EA008091EB0088608093EB001092E900A1
:1038D0008091E800877F8093E8000E94F119ACC0D6
:1038E0008111AAC0109157021F778091E300807860
:1038F000812B8093E3008091E800877F8093E8002C
:103900000E94F1198091E80080FFFCCF8091E300D4
:1039100080688093E300111102C082E001C083E05F
:103920008093540289C08058823008F085C080910D
:103930005702909158028C3D53E0950779F583E04A
:103940008A838AE289834FB7F894DE01139620E0D8
:103950003EE051E2E32FF0E050935700E49120FF66
:1039600003C0E295EF703F5FEF708E2F90E0EA307A
:1039700010F0C79601C0C0968D939D932F5F2431A0
:1039800049F74FBF8091E800877F8093E8006AE2A3
:1039900070E0CE0101960E94FD1816C06091590298
:1039A00070915A02AE014F5F5F4F0E942C18BC010C
:1039B000892B09F441C09091E800977F9093E8002B
:1039C00089819A810E945B198091E8008B778093AE
:1039D000E80032C0803881F58091E800877F8093CD
:1039E000E800809150028093F1008091E8008E778A
:1039F00072CF811121C0809157029091580299276E
:103A00000297D4F48091E800877F8093E80080914A
:103A10005702809350020E94F11980915002811147
:103A200006C08091E30087FD02C081E001C084E010
:103A3000809354020E9426178091E80083FF0AC0F9
:103A40008091E800877F8093E8008091EB0080629E
:103A50008093EB00AA960FB6F894DEBF0FBECDBFE1
:103A6000DF91CF911F9108950895CF9380915402D3
:103A70008823A1F0C091E900CF709091EC00892FCC
:103A8000817090FD80E8C82B1092E9008091E800D9
:103A900083FD0E94D41BCF70C093E900CF9108959D
:103AA000EE0FFF1F0590F491E02D0994F999FECFD8
:103AB00092BD81BDF89A992780B50895A8E1B0E03C
:103AC00042E050E00C948A1D262FF999FECF92BD5A
:103AD00081BDF89A019700B4021639F01FBA20BDD3
:103AE0000FB6F894FA9AF99A0FBE08950396272F05
:103AF0000E94651D0E94641D252F0E94651D242FB4
:103B00000C94651D0196272F0E94651D0C94641D61
:103B1000DC01CB01FC01F999FECF06C0F2BDE1BD8D
:103B2000F89A319600B40D9241505040B8F708957C
:043B3000F894FFCF37
:103B3400018F010090010590011C029116DE16947C
:103B440016DA16C81601E200E900EA00B500B6006C
:103B5400B700CD008301CC008A01920194012102B7
:103B6400230224022502260227022A02B300B400FB
:103B74006F007000818283F4F5F6F7313332949745
:103B8400C634350000000000E200E900EA00B50098
:103B9400B600B700CD008301CC008A0192019401E4
:103BA4002102230224022502260227022A02B3004C
:0A3BB400B4006F00700081828300EE
:00000001FF
